:020000040800F2
:1000000000000320291A0008491800084F180008AA
:10001000551800085B18000861180008000000006F
:100020000000000000000000000000006718000849
:1000300075180008000000008318000891180008D7
:10004000791A0008791A0008791A0008791A000844
:10005000791A0008791A0008791A0008791A000834
:10006000791A0008791A0008791A0008791A000824
:10007000791A0008791A0008791A0008791A000814
:10008000791A0008791A0008791A0008791A000804
:10009000791A0008791A0008791A0008791A0008F4
:1000A000791A0008791A0008791A0008791A0008E4
:1000B000791A0008791A0008791A0008791A0008D4
:1000C000791A0008791A0008791A0008791A0008C4
:1000D000791A0008791A0008791A0008791A0008B4
:1000E000791A0008791A0008791A0008791A0008A4
:1000F000791A0008791A0008791A0008791A000894
:10010000791A0008791A0008791A0008791A000883
:10011000791A0008791A0008791A0008791A000873
:100120009D180008791A0008791A0008791A000841
:10013000791A0008791A0008791A0008791A000853
:10014000791A0008791A0008791A0008791A000843
:10015000791A0008791A0008791A0008791A000833
:10016000791A0008791A0008791A0008791A000823
:10017000791A0008791A0008791A000800000000AE
:10018000791A0008791A0008791A0008791A000803
:10019000791A0008791A0008791A0008791A0008F3
:0C01A000791A0008791A0008791A000882
:1001B00010B5054C237833B9044B13B10448AFF3A1
:1001C00000800123237010BDD40100200000000036
:1001D0002889000808B5034B1BB103490348AFF356
:1001E000008008BD00000000D80100202889000818
:1001F00001F0FF01102A2BDB10F0070F08D010F8D8
:10020000013B013A8B422DD010F0070F42B3F6D1DB
:10021000F0B441EA012141EA014122F007047FF0F4
:1002200000070023F0E80256083C85EA010586EA4B
:10023000010685FA47F5A3FA87F586FA47F6A5FA87
:1002400087F68EB9EED1F0BC01F0FF0102F0070293
:1002500032B110F8013B013A83EA010313B1F8D13E
:100260000020704701387047002D06BF354603381F
:10027000073815F0010F07D1013015F4807F02BF58
:10028000013015F4C03F0130F0BC0138704700BFA9
:10029000034613F8012B002AFBD1181A01387047C6
:1002A00081F0004102E000BF83F0004330B54FEA27
:1002B00041044FEA430594EA050F08BF90EA020F94
:1002C0001FBF54EA000C55EA020C7FEA645C7FEA27
:1002D000655C00F0E2804FEA5454D4EB5555B8BF4A
:1002E0006D420CDD2C4480EA020281EA030382EABB
:1002F000000083EA010180EA020281EA0303362D4D
:1003000088BF30BD11F0004F4FEA01314FF4801C1F
:100310004CEA113102D0404261EB410113F0004F31
:100320004FEA03334CEA133302D0524263EB4303E8
:1003300094EA050F00F0A780A4F10104D5F1200E86
:100340000DDB02FA0EFC22FA05F2801841F10001E1
:1003500003FA0EF2801843FA05F359410EE0A5F1B5
:1003600020050EF1200E012A03FA0EFC28BF4CF0E6
:10037000020C43FA05F3C01851EBE37101F000459C
:1003800007D54FF0000EDCF1000C7EEB00006EEBA9
:100390000101B1F5801F1BD3B1F5001F0CD3490833
:1003A0005FEA30004FEA3C0C04F101044FEA44528A
:1003B00012F5800F80F09A80BCF1004F08BF5FEA11
:1003C000500C50F1000041EB045141EA050130BDF1
:1003D0005FEA4C0C404141EB0101013C28BFB1F503
:1003E000801FE9D291F0000F04BF01460020B1FA4E
:1003F00081F308BF2033A3F10B03B3F120020CDA21
:100400000C3208DD02F1140CC2F10C0201FA0CF0FE
:1004100021FA02F10CE002F11402D8BFC2F1200C63
:1004200001FA02F120FA0CFCDCBF41EA0C01904019
:10043000E41AA2BF01EB0451294330BD6FEA040462
:100440001F3C1CDA0C340EDC04F11404C4F120024D
:1004500020FA04F001FA02F340EA030021FA04F35F
:1004600045EA030130BDC4F10C04C4F1200220FAB6
:1004700002F001FA04F340EA0300294630BD21FAF4
:1004800004F0294630BD94F0000F83F4801306BFBA
:1004900081F480110134013D4EE77FEA645C18BFAE
:1004A0007FEA655C29D094EA050F08BF90EA020F45
:1004B00005D054EA000C04BF1946104630BD91EA3D
:1004C000030F1EBF0021002030BD5FEA545C05D140
:1004D0004000494128BF41F0004130BD14F580047F
:1004E0003CBF01F5801130BD01F0004545F0FE41F3
:1004F00041F470014FF0000030BD7FEA645C1ABF28
:10050000194610467FEA655C1CBF0B46024650EA5E
:10051000013406BF52EA033591EA030F41F400218A
:1005200030BD00BF90F0000F04BF0021704730B510
:100530004FF4806404F132044FF000054FF00001E5
:1005400050E700BF90F0000F04BF0021704730B5A6
:100550004FF4806404F1320410F0004548BF40427B
:100560004FF000013EE700BF42004FEAE2014FEAD0
:1005700031014FEA02701FBF12F07F4393F07F4FAB
:1005800081F06051704732F07F4208BF704793F0AE
:100590007F4F04BF41F40021704730B54FF46074C1
:1005A00001F0004521F000411CE700BF50EA0102C4
:1005B00008BF704730B54FF000050AE050EA01026D
:1005C00008BF704730B511F0004502D5404261EBDD
:1005D00041014FF4806404F132045FEA915C3FF41E
:1005E000D8AE4FF003025FEADC0C18BF03325FEABB
:1005F000DC0C18BF033202EBDC02C2F1200300FA6C
:1006000003FC20FA02F001FA03FE40EA0E0021FA90
:1006100002F11444BDE600BF70B54FF0FF0C4CF47E
:10062000E06C1CEA11541DBF1CEA135594EA0C0F30
:1006300095EA0C0F00F0DEF82C4481EA030621EA6B
:100640004C5123EA4C5350EA013518BF52EA0335A6
:1006500041F4801143F4801338D0A0FB02CE4FF058
:100660000005E1FB02E506F00042E0FB03E54FF088
:100670000006E1FB03569CF0000F18BF4EF0010E80
:10068000A4F1FF04B6F5007F64F5407404D25FEA7C
:100690004E0E6D4146EB060642EAC62141EA55512F
:1006A0004FEAC52040EA5E504FEACE2EB4F1FD0C71
:1006B00088BFBCF5E06F1ED8BEF1004F08BF5FEAEF
:1006C000500E50F1000041EB045170BD06F00046A1
:1006D00046EA010140EA020081EA0301B4EB5C044E
:1006E000C2BFD4EB0C0541EA045170BD41F4801146
:1006F0004FF0000E013C00F3AB8014F1360FDEBF6B
:10070000002001F0004170BDC4F10004203C35DA46
:100710000C341BDC04F11404C4F1200500FA05F3C9
:1007200020FA04F001FA05F240EA020001F000426A
:1007300021F0004110EBD37021FA04F642EB0601E0
:100740005EEA430E08BF20EAD37070BDC4F10C040A
:10075000C4F1200500FA04F320FA05F001FA04F2CE
:1007600040EA020001F0004110EBD37041F10001BA
:100770005EEA430E08BF20EAD37070BDC4F12005C5
:1007800000FA05F24EEA020E20FA04F301FA05F22D
:1007900043EA020321FA04F001F0004121FA04F2D5
:1007A00020EA020000EBD3705EEA430E08BF20EAA5
:1007B000D37070BD94F0000F0FD101F000464000DF
:1007C00041EB010111F4801F08BF013CF7D041EA61
:1007D000060195F0000F18BF704703F00046520065
:1007E00043EB030313F4801F08BF013DF7D043EA36
:1007F0000603704794EA0C0F0CEA135518BF95EAEC
:100800000C0F0CD050EA410618BF52EA4306D1D172
:1008100081EA030101F000414FF0000070BD50EA91
:10082000410606BF1046194652EA430619D094EA1B
:100830000C0F02D150EA013613D195EA0C0F05D105
:1008400052EA03361CBF104619460AD181EA030159
:1008500001F0004141F0FE4141F470014FF0000011
:1008600070BD41F0FE4141F4780170BD70B54FF0AC
:10087000FF0C4CF4E06C1CEA11541DBF1CEA13552C
:1008800094EA0C0F95EA0C0F00F0A7F8A4EB05040E
:1008900081EA030E52EA03354FEA013100F0888005
:1008A0004FEA03334FF0805545EA131343EA1263CE
:1008B0004FEA022245EA111545EA10654FEA002683
:1008C0000EF000419D4208BF964244F1FD0404F53C
:1008D000407402D25B084FEA3202B61A65EB030598
:1008E0005B084FEA32024FF480104FF4002CB6EB55
:1008F000020E75EB030E22BFB61A754640EA0C00D5
:100900005B084FEA3202B6EB020E75EB030E22BF14
:10091000B61A754640EA5C005B084FEA3202B6EB55
:10092000020E75EB030E22BFB61A754640EA9C0014
:100930005B084FEA3202B6EB020E75EB030E22BFE4
:10094000B61A754640EADC0055EA060E18D04FEAA2
:10095000051545EA16754FEA06164FEAC30343EA42
:1009600052734FEAC2025FEA1C1CC0D111F4801F0F
:100970000BD141EA00014FF000004FF0004CB6E708
:1009800011F4801F04BF01430020B4F1FD0C88BFA7
:10099000BCF5E06F3FF6AFAEB5EB030C04BFB6EBB2
:1009A000020C5FEA500C50F1000041EB045170BDA5
:1009B0000EF0004E4EEA113114EB5C04C2BFD4EBD2
:1009C0000C0541EA045170BD41F480114FF0000E56
:1009D000013C90E645EA060E8DE60CEA135594EAD2
:1009E0000C0F08BF95EA0C0F3FF43BAF94EA0C0FD5
:1009F0000AD150EA01347FF434AF95EA0C0F7FF44A
:100A000025AF104619462CE795EA0C0F06D152EA9D
:100A100003353FF4FDAE1046194622E750EA410681
:100A200018BF52EA43067FF4C5AE50EA41047FF492
:100A30000DAF52EA43057FF4EBAE12E74FF0FF3CF7
:100A400006E000BF4FF0010C02E000BF4FF0010CC8
:100A50004DF804CD4FEA410C7FEA6C5C4FEA430C41
:100A600018BF7FEA6C5C1BD001B050EA410C0CBF90
:100A700052EA430C91EA030F02BF90EA020F0020F2
:100A8000704710F1000F91EA030F58BF994208BF59
:100A900090422CBFD8176FEAE37040F00100704716
:100AA0004FEA410C7FEA6C5C02D150EA013C07D16D
:100AB0004FEA430C7FEA6C5CD6D152EA033CD3D0B8
:100AC0005DF8040B704700BF8446104662468C46B2
:100AD0001946634600E000BF01B5FFF7B7FF0028E5
:100AE00048BF10F1000F01BD4DF808EDFFF7F4FF0E
:100AF0000CBF012000205DF808FB00BF4DF808ED99
:100B0000FFF7EAFF34BF012000205DF808FB00BFBB
:100B10004DF808EDFFF7E0FF94BF012000205DF8DD
:100B200008FB00BF4DF808EDFFF7CEFF94BF012092
:100B300000205DF808FB00BF4DF808EDFFF7C4FF8B
:100B400034BF012000205DF808FB00BF4FEA410CD4
:100B50007FEA6C5C02D150EA013C0AD14FEA430CB7
:100B60007FEA6C5C02D152EA033C02D14FF00000F4
:100B700070474FF0010070474FEA410212F5001232
:100B800015D211D56FF47873B3EB625212D94FEAD4
:100B9000C12343F0004343EA505311F0004F23FABE
:100BA00002F018BF404270474FF00000704750EA13
:100BB000013005D111F0004008BF6FF000407047D0
:100BC0004FF00000704700BF4A0011D212F500122A
:100BD00011D20DD56FF47873B3EB62520ED44FEA95
:100BE000C12343F0004343EA505323FA02F0704715
:100BF0004FF00000704750EA013002D14FF0FF3053
:100C000070474FF0000070474FEA4102B2F1E043F5
:100C100024BFB3F5001CDCF1FE5C0DD901F0004CE3
:100C20004FEAC0024CEA5070B2F1004F40EB830033
:100C300008BF20F00100704711F0804F21D113F15F
:100C40003872BCBF01F00040704741F480114FEA98
:100C50005252C2F11802C2F1200C10FA0CF320FA21
:100C600002F018BF40F001004FEAC1234FEAD3233E
:100C700003FA0CFC40EA0C0023FA02F34FEA4303A8
:100C8000CCE77FEA625307D150EA01331EBF4FF031
:100C9000FE4040F44000704701F0004040F0FE404C
:100CA00040F40000704700BF53B94AB9002908BF9B
:100CB00000281CBF4FF0FF314FF0FF3000F0A6B905
:100CC000ADF1080C6DE904CE00F03CF8DDF804E06D
:100CD000DDE9022304B0704738B500220023044642
:100CE0000D46FFF70BFF28B920462946BDE83840DE
:100CF00000F00AB8204605F1004100F005F8404236
:100D000061EB410138BD00BFD0B50C4B0022064657
:100D10000F46FFF781FCFFF757FF0446FFF702FC81
:100D2000074B0022FFF778FC02460B463046394657
:100D3000FFF7BAFAFFF748FF2146D0BD0000F03DAB
:100D40000000F0412DE9F047089E0D4604460F468D
:100D5000002B4AD18A42944665D9B2FA82F343B154
:100D600002FA03FCC3F120029F4020FA02F217436B
:100D70009C404FEA1C4E1FFA8CF5B7FBFEF1220C8B
:100D80000EFB117742EA074201FB05F090420AD9B7
:100D90001CEB020201F1FF3780F01C81904240F20F
:100DA000198102396244121AA4B2B2FBFEF00EFBA2
:100DB000102244EA024400FB05F5A5420AD91CEBC7
:100DC000040400F1FF3280F00781A54240F2048163
:100DD0006444023840EA0140641B00211EB1DC403B
:100DE0000023C6E90043BDE8F0878B4208D9002EF6
:100DF00000F0ED800021C6E900050846BDE8F08757
:100E0000B3FA83F1002949D1AB4202D3824200F206
:100E1000F880841A65EB030201201746002EE2D009
:100E2000C6E90047DFE702B9FFDEB2FA82F3002B22
:100E300040F090808A1A4FEA1C471FFA8CFE01216D
:100E4000B2FBF7F507FB1520220C42EA00420EFB2D
:100E500005F0904208D91CEB020205F1FF3802D2DE
:100E6000904200F2CB804546121AA4B2B2FBF7F0D2
:100E700007FB102244EA02440EFB00FEA64508D9F7
:100E80001CEB040400F1FF3202D2A64500F2BB8045
:100E90001046A4EB0E0440EA05409FE7C1F120078D
:100EA0008B4022FA07FC4CEA030C05FA01F420FA05
:100EB00007F3FD404FEA1C492343B5FBF9F81FFA3D
:100EC0008CFE09FB18551C0C44EA054408FB0EF582
:100ED000A54202FA01F200FA01F00BD91CEB04045E
:100EE00008F1FF3A80F08880A54240F28580A8F1A1
:100EF00002086444641B9DB2B4FBF9F309FB13447C
:100F000045EA044403FB0EFEA64508D91CEB040485
:100F100003F1FF356CD2A6456AD9023B644443EA2B
:100F20000843A3FB0295A4EB0E04AC42C846AE46B0
:100F300056D353D056B1B0EB080264EB0E0404FA5A
:100F400007F7CA40CC401743C6E900741846002191
:100F5000BDE8F087C3F1200102FA03FC20FA01F298
:100F600025FA01F19D402A434FEA1C471FFA8CFEE7
:100F7000B1FBF7F007FB1015110C41EA054100FB2E
:100F80000EF58D4204FA03F408D91CEB010100F1BF
:100F9000FF382FD28D422DD902386144491B92B2BD
:100FA000B1FBF7F507FB151142EA014205FB0EF113
:100FB000914208D91CEB020205F1FF3816D291428A
:100FC00014D9023D6244521A45EA004138E73146DD
:100FD000304608E73946E6E61046FBE64845A9D222
:100FE000B9EB020865EB0C0E013BA3E74546EAE7C7
:100FF0002B4694E74046D1E7D0467BE7023D62446A
:1010000032E708460AE76444023842E7704700BF07
:1010100080B584B000AFF860B9607A607B689AB23E
:101020004FF0FF33B968044802F0C5FC7B681846EE
:101030001037BD4680BD00BF6403002000000000E3
:1010400080B582B000AF7860234B1B681846FFF76D
:1010500069FA1BA3D3E90023FFF7DEFA02460B4629
:101060001046194618A3D3E90023FFF71DF90246DD
:101070000B461046194616A3D3E90023FFF7F6FBEB
:1010800002460B46104619464FF00002134BFFF77D
:101090000DF902460B4610461946FFF7B5FD03460B
:1010A0000F4A13600E4B1B681846FFF75DFA0246A5
:1010B0000B460C4803F02CFF00BF0837BD4680BD2F
:1010C0006666666666664A3F52B81E85EB51E83F23
:1010D0007B14AE47E17A643FA8030020000039404A
:1010E000AC0300204089000880B500AF00F0C6FCCA
:1010F00000F01EF800F0A4F900F082F900F084F886
:1011000000F0D6F800F0FEF800F026F900F04EF9F5
:1011100001220449044800F067FD044803F05EFF23
:10112000FEE700BFA8030020F00100205889000856
:1011300080B594B000AF07F120033022002118469B
:1011400004F04CF807F10C0300221A605A609A6010
:10115000DA601A610023BB60294B1B6C284A43F0FC
:1011600080531364264B1B6C03F08053BB60BB6839
:1011700000237B60234B1B6823F44043214A43F444
:10118000804313601F4B1B6803F440437B607B6804
:1011900001233B624FF480337B620223BB634FF435
:1011A0008003FB6304233B6432237B640223BB6420
:1011B0000423FB6407F12003184601F017FF0346E0
:1011C000002B01D000F0B4F90F23FB6002233B6138
:1011D00000237B614FF48053BB614FF48053FB616C
:1011E00007F10C030121184602F078F90346002BA1
:1011F00001D000F09DF900BF5037BD4680BD00BF53
:10120000003802400070004080B584B000AF3B461B
:1012100000221A605A609A60DA60214B214A1A60F3
:101220001F4B4FF480325A601D4B00229A601C4BBA
:1012300000221A611A4B01221A76194B002283F8F8
:101240002020174B0022DA62154B174A9A62144B82
:101250000022DA60124B0122DA61114B012283F87D
:1012600030200F4B01225A610D4800F079FC0346F3
:10127000002B01D000F05CF90C4B3B6001237B603C
:101280000523BB603B461946054800F0D1FD0346E7
:10129000002B01D000F04CF900BF1037BD4680BDD7
:1012A000F0010020002001400100000F120000109A
:1012B00080B500AF114B124A1A60104B4FF4E13267
:1012C0005A600E4B00229A600C4B0022DA600B4BE6
:1012D00000221A61094B0C225A61084B00229A61C4
:1012E000064B0022DA61054802F018FB0346002B8A
:1012F00001D000F01DF900BF80BD00BF98020020A2
:10130000004C004080B500AF114B124A1A60104BE0
:101310004FF4E1325A600E4B00229A600C4B0022CF
:10132000DA600B4B00221A61094B0C225A61084B00
:1013300000229A61064B0022DA61054802F0EEFABB
:101340000346002B01D000F0F3F800BF80BD00BFC2
:10135000DC0200200050004080B500AF114B124A63
:101360001A60104B4FF4E1325A600E4B00229A6023
:101370000C4B0022DA600B4B00221A61094B0C2245
:101380005A61084B00229A61064B0022DA61054837
:1013900002F0C4FA0346002B01D000F0C9F800BFE8
:1013A00080BD00BF200300200078004080B500AF62
:1013B000114B124A1A60104B4FF4E1325A600E4B37
:1013C00000229A600C4B0022DA600B4B00221A615B
:1013D000094B0C225A61084B00229A61064B0022ED
:1013E000DA61054802F09AFA0346002B01D000F0BA
:1013F0009FF800BF80BD00BF64030020007C004058
:1014000080B582B000AF00237B600C4B1B6B0B4A96
:1014100043F480031363094B1B6B03F480037B606D
:101420007B6800220021382001F08DF8382001F07F
:10143000A6F800BF0837BD4680BD00BF0038024097
:1014400080B58CB000AF07F11C0300221A605A600F
:101450009A60DA601A610023BB61334B1B6B324A1E
:1014600043F020031363304B1B6B03F02003BB617D
:10147000BB6900237B612C4B1B6B2B4A43F0800321
:101480001363294B1B6B03F080037B617B69002393
:101490003B61254B1B6B244A43F001031363224B32
:1014A0001B6B03F001033B613B690023FB601E4B98
:1014B0001B6B1D4A43F0040313631B4B1B6B03F0B0
:1014C0000403FB60FB680023BB60174B1B6B164AD1
:1014D00043F008031363144B1B6B03F00803BB605A
:1014E000BB6800237B60104B1B6B0F4A43F010035B
:1014F00013630D4B1B6B03F010037B607B680C23A5
:10150000FB6102233B6200237B620323BB62072350
:10151000FB6207F11C031946044801F0BBFB00BF46
:101520003037BD4680BD00BF003802400000024099
:1015300080B400AF72B600BFFEE7000080B483B095
:1015400000AF00237B60104B5B6C0F4A43F4804379
:1015500053640D4B5B6C03F480437B607B6800231A
:101560003B60094B1B6C084A43F080531364064BE5
:101570001B6C03F080533B603B6800BF0C37BD46DB
:101580005DF8047B704700BF0038024080B584B02E
:1015900000AF78607B681B68224A93423DD10023EC
:1015A000FB60214B5B6C204A43F4807353641E4BF9
:1015B0005B6C03F48073FB60FB681C4B1C4A1A6075
:1015C0001A4B00225A60194B00229A60174B0022D6
:1015D000DA60164B4FF480621A61144B4FF480525C
:1015E0005A61124B4FF480429A61104B4FF4807253
:1015F000DA610E4B00221A620C4B00225A620B4831
:1016000000F0D8FF0346002B01D0FFF791FF7B6865
:10161000064A9A63054A7B68936300BF1037BD464C
:1016200080BD00BF00200140003802403802002089
:101630001064024080B590B000AF786007F12C03D1
:1016400000221A605A609A60DA601A617B681B682F
:10165000734A93422CD10023BB62724B1B6C714ABC
:1016600043F4002313646F4B1B6C03F40023BB6231
:10167000BB6A00237B626B4B1B6B6A4A43F001031E
:101680001363684B1B6B03F001037B627B6A0323CC
:10169000FB6202233B6300237B630323BB630823BA
:1016A000FB6307F12C0319465F4801F0F3FAB3E03E
:1016B0007B681B685D4A93424BD100233B62594BC8
:1016C0001B6C584A43F480131364564B1B6C03F491
:1016D00080133B623B6A0023FB61524B1B6B514AF8
:1016E00043F0040313634F4B1B6B03F00403FB61D4
:1016F000FB690023BB614B4B1B6B4A4A43F0080359
:101700001363484B1B6B03F00803BB61BB694FF4C9
:101710008053FB6202233B6300237B630323BB6391
:101720000823FB6307F12C031946414801F0B2FA84
:101730000423FB6202233B6300237B630323BB631D
:101740000823FB6307F12C0319463A4801F0A2FA7B
:1017500062E07B681B68384A93422CD100237B618E
:10176000304B1B6C2F4A43F0804313642D4B1B6C92
:1017700003F080437B617B6900233B61294B1B6B3A
:10178000284A43F020031363264B1B6B03F020030E
:101790003B613B69C023FB6202233B6300237B6305
:1017A0000323BB630823FB6307F12C03194623487B
:1017B00001F070FA30E07B681B68214A93422BD11C
:1017C0000023FB60174B1B6C164A43F00043136465
:1017D000144B1B6C03F00043FB60FB680023BB60F1
:1017E000104B1B6B0F4A43F0100313630D4B1B6B25
:1017F00003F01003BB60BB680323FB6202233B635F
:1018000000237B630323BB630823FB6307F12C03E3
:1018100019460C4801F03EFA00BF4037BD4680BD76
:10182000004C0040003802400000024000500040E0
:1018300000080240000C0240007800400014024002
:10184000007C00400010024080B400AFFEE780B48E
:1018500000AFFEE780B400AFFEE780B400AFFEE764
:1018600080B400AFFEE780B400AF00BFBD465DF8B6
:10187000047B704780B400AF00BFBD465DF8047BB9
:10188000704780B400AF00BFBD465DF8047B704771
:1018900080B500AF00F044F900BF80BD80B500AF57
:1018A000024800F08DFF00BF80BD00BF380200205D
:1018B00080B400AF01231846BD465DF8047B704735
:1018C00080B582B000AF7860396003F0D9FC034680
:1018D00016221A604FF0FF3318460837BD4680BD08
:1018E00080B582B000AF78604FF0FF317868FFF7C5
:1018F000E7FFFEE780B586B000AFF860B9607A60B8
:1019000000237B610AE0AFF300800146BB685A1CEC
:10191000BA60CAB21A707B6901337B617A697B68ED
:101920009A42F0DB7B6818461837BD4680BD80B40C
:1019300083B000AF78604FF0FF3318460C37BD46D8
:101940005DF8047B704780B483B000AF7860396085
:101950003B684FF400525A60002318460C37BD46CE
:101960005DF8047B704780B483B000AF78600123DA
:1019700018460C37BD465DF8047B704780B485B0CF
:1019800000AFF860B9607A60002318461437BD468E
:101990005DF8047B7047000080B586B000AF7860CA
:1019A000144A154BD31A7B617B693B61134B1B684F
:1019B000002B02D1114B124A1A60104B1A687B6837
:1019C00013443A699A4207D203F05AFC03460C22A8
:1019D0001A604FF0FF3309E0084B1B68FB60074BB0
:1019E0001A687B681344054A1360FB681846183769
:1019F000BD4680BD0000032000040000B0030020AD
:101A00000805002080B400AF064BD3F88830054AA3
:101A100043F47003C2F8883000BFBD465DF8047B14
:101A2000704700BF00ED00E0DFF834D00D480E49EC
:101A30000E4A002302E0D458C4500433C4188C4228
:101A4000F9D30B4A0B4C002301E013600432A2428D
:101A5000FBD3FFF7D7FF03F019FCFFF745FB7047F7
:101A60000000032000000020D4010020B88D0008F1
:101A7000D401002004050020FEE7000080B500AF7F
:101A80000E4B1B680D4A43F4007313600B4B1B682D
:101A90000A4A43F480631360084B1B68074A43F407
:101AA00080731360032000F043FD0F2000F008F85E
:101AB000FFF744FD0023184680BD00BF003C0240F4
:101AC00080B582B000AF7860124B1A68124B1B7859
:101AD00019464FF47A73B3FBF1F3B2FBF3F31846F4
:101AE00000F05BFD0346002B01D001230EE07B6874
:101AF0000F2B0AD8002279684FF0FF3000F023FD49
:101B0000064A7B681360002300E00123184608376B
:101B1000BD4680BD00000020080000200400002019
:101B200080B400AF064B1B781A46064B1B68134463
:101B3000044A136000BFBD465DF8047B704700BFD8
:101B400008000020B403002080B400AF034B1B68E2
:101B50001846BD465DF8047B704700BFB403002003
:101B600080B584B000AF78600023FB737B68002BE6
:101B700001D1012333E07B681B6C002B09D178680D
:101B8000FFF704FD7B6800225A647B68002283F81B
:101B90003C207B681B6C03F01003002B18D17B6882
:101BA0001B6C23F4885323F0020343F002027B688A
:101BB0001A64786800F06EFA7B6800225A647B68C9
:101BC0001B6C23F0030343F001027B681A6401E0FD
:101BD0000123FB737B68002283F83C20FB7B1846C3
:101BE0001037BD4680BD000080B586B000AFF860FC
:101BF000B9607A6000233B61FB6893F83C30012BAD
:101C000001D10223E9E0FB68012283F83C20FB6854
:101C10001B689B6803F00103012B18D0FB681B684D
:101C20009A68FB681B6842F001029A606D4B1B6862
:101C30006D4AA2FB03239A0C13465B0013443B61DD
:101C400002E03B69013B3B613B69002BF9D1FB683A
:101C50001B689B6803F48073B3F5807F07D1FB6832
:101C60001B689A68FB681B6822F480729A60FB68A4
:101C70001B689B6803F00103012B40F0A180FB6807
:101C80001B6C23F4E06323F0010343F48072FB68D0
:101C90001A64FB681B685B6803F48063002B07D041
:101CA000FB681B6C23F4405343F48052FB681A64B6
:101CB000FB681B6C03F48053B3F5805F06D1FB68AF
:101CC0005B6C23F00602FB685A6402E0FB680022AA
:101CD0005A64FB68002283F83C20444B7B61FB681C
:101CE0009B6B434ADA63FB689B6B424A1A64FB684E
:101CF0009B6B414ADA64FB681B686FF022021A6032
:101D0000FB681B685A68FB681B6842F080625A6077
:101D1000FB681B689A68FB681B6842F480729A60D3
:101D2000FB68986BFB681B684C331946BA687B6884
:101D300000F0EEFC7B695B6803F01F03002B2AD1E7
:101D4000FB681B682D4A934215D0FB681B682C4A20
:101D5000934205D1254B5B6803F01F03002B0AD08B
:101D6000FB681B68274A934236D1204B5B6803F01F
:101D70001003002B30D1FB681B689B6803F04053B5
:101D8000002B29D1FB681B689A68FB681B6842F02E
:101D900080429A6020E0FB681B68184A93421BD17E
:101DA000FB681B689B6803F04053002B14D1FB6851
:101DB0001B689A68FB681B6842F080429A600BE0DF
:101DC000FB681B6C43F01002FB681A64FB685B6CD9
:101DD00043F00102FB685A64002318461837BD46D9
:101DE00080BD00BF0000002083DE1B4300230140B4
:101DF0008D220008472300086323000800200140CB
:101E0000002101400022014080B483B000AF78601F
:101E100000BF0C37BD465DF8047B704780B483B0CB
:101E200000AF786000BF0C37BD465DF8047B70479B
:101E300080B485B000AF786039600023BB607B68F8
:101E400093F83C30012B01D1022313E17B6801227E
:101E500083F83C203B681B68092B25D97B681B68ED
:101E6000D9683B681B689BB21A4613465B00134453
:101E70001E3B072202FA03F3DA437B681B680A4021
:101E8000DA607B681B68D9683B689A683B681B68A6
:101E90009BB2184603465B0003441E3B9A407B6896
:101EA0001B680A43DA6022E07B681B6819693B689B
:101EB0001B689BB21A4613465B001344072202FAC2
:101EC00003F3DA437B681B680A401A617B681B686E
:101ED00019693B689A683B681B689BB218460346C1
:101EE0005B0003449A407B681B680A431A613B68A5
:101EF0005B68062B24D87B681B68596B3B685A6863
:101F000013469B001344053B1F2202FA03F3DA43F6
:101F10007B681B680A405A637B681B68596B3B6887
:101F20001B689BB218463B685A6813469B001344D3
:101F3000053B00FA03F27B681B680A435A634CE0D6
:101F40003B685B680C2B24D87B681B68196B3B686B
:101F50005A6813469B001344233B1F2202FA03F3E3
:101F6000DA437B681B680A401A637B681B68196B3D
:101F70003B681B689BB218463B685A6813469B0037
:101F80001344233B00FA03F27B681B680A431A637D
:101F900023E07B681B68D96A3B685A6813469B003C
:101FA0001344413B1F2202FA03F3DA437B681B68A8
:101FB0000A40DA627B681B68D96A3B681B689BB27F
:101FC00018463B685A6813469B001344413B00FA8D
:101FD00003F27B681B680A43DA62294BFB607B686B
:101FE0001B68284A93420FD13B681B68122B0BD108
:101FF000FB685B6823F40002FB685A60FB685B685F
:1020000043F48002FB685A607B681B681D4A934258
:102010002BD13B681B681C4A934203D03B681B686A
:10202000112B22D1FB685B6823F48002FB685A60A5
:10203000FB685B6843F40002FB685A603B681B68FE
:10204000114A934211D1114B1B68114AA2FB032381
:102050009A0C13469B0013445B00BB6002E0BB6814
:10206000013BBB60BB68002BF9D17B68002283F881
:102070003C20002318461437BD465DF8047B7047AA
:102080000023014000200140120000100000002049
:1020900083DE1B4380B485B000AF7860794BFB6072
:1020A000FB685B6823F44032FB685A60FB685A683F
:1020B0007B685B681A43FB685A607B681B685A68D8
:1020C0007B681B6822F480725A607B681B685968C1
:1020D0007B681B691A027B681B680A435A607B682D
:1020E0001B685A687B681B6822F040725A607B68E4
:1020F0001B6859687B689A687B681B680A435A604A
:102100007B681B689A687B681B6822F400629A608F
:102110007B681B6899687B68DA687B681B680A4380
:102120009A607B689B6A584A934222D07B681B68FE
:102130009A687B681B6822F070629A607B681B68F3
:1021400099687B689A6A7B681B680A439A607B6817
:102150001B689A687B681B6822F040529A607B6813
:102160001B6899687B68DA6A7B681B680A439A6017
:102170000FE07B681B689A687B681B6822F07062BE
:102180009A607B681B689A687B681B6822F04052E3
:102190009A607B681B689A687B681B6822F0020261
:1021A0009A607B681B6899687B681B7E5A007B6815
:1021B0001B680A439A607B6893F82030002B1BD081
:1021C0007B681B685A687B681B6842F400625A602F
:1021D0007B681B685A687B681B6822F460425A60FF
:1021E0007B681B6859687B685B6A013B5A037B68A4
:1021F0001B680A435A6007E07B681B685A687B6863
:102200001B6822F400625A607B681B68DA6A7B688C
:102210001B6822F47002DA627B681B68D96A7B68EB
:10222000DB69013B1A057B681B680A43DA627B683D
:102230001B689A687B681B6822F400729A607B684E
:102240001B6899687B6893F830305A027B681B687A
:102250000A439A607B681B689A687B681B6822F453
:1022600080629A607B681B6899687B685B699A02E8
:102270007B681B680A439A6000BF1437BD465DF84F
:10228000047B7047002301400100000F80B584B03B
:1022900000AF78607B689B6BFB60FB681B6C03F096
:1022A0005003002B3CD1FB681B6C43F40072FB68AD
:1022B0001A64FB681B689B6803F04053002B2BD10A
:1022C000FB681B7E002B27D1FB681B68DB6A03F4CD
:1022D0007003002B06D0FB681B689B6803F48063C7
:1022E000002B19D1FB681B685A68FB681B6822F039
:1022F00020025A60FB681B6C23F48072FB681A642E
:10230000FB681B6C03F48053002B05D1FB681B6C2E
:1023100043F00102FB681A64F868FEF791FE0EE0D4
:10232000FB681B6C03F01003002B03D0F868FFF769
:1023300075FD04E0FB689B6BDB6C7868984700BF19
:102340001037BD4680BD80B584B000AF78607B6833
:102350009B6BFB60F868FFF757FD00BF1037BD4669
:1023600080BD80B584B000AF78607B689B6BFB60FC
:10237000FB6840221A64FB685B6C43F00402FB6854
:102380005A64F868FFF74AFD00BF1037BD4680BDAC
:1023900080B485B000AF78607B6803F00703FB6012
:1023A0000C4BDB68BB60BA684FF6FF031340BB60A1
:1023B000FB681A02BB68134343F0BF6343F4003366
:1023C000BB60044ABB68D36000BF1437BD465DF8EC
:1023D000047B704700ED00E080B400AF044BDB6885
:1023E0001B0A03F007031846BD465DF8047B7047DF
:1023F00000ED00E080B483B000AF0346FB7197F9B5
:102400000730002B0BDBFB7903F01F02074997F91C
:1024100007305B09012000FA02F241F8232000BFD7
:102420000C37BD465DF8047B704700BF00E100E05B
:1024300080B483B000AF03463960FB7197F9073071
:10244000002B0ADB3B68DAB20C4997F9073012011E
:10245000D2B20B4483F800230AE03B68DAB20849A1
:10246000FB7903F00F03043B1201D2B20B441A763E
:1024700000BF0C37BD465DF8047B704700E100E00B
:1024800000ED00E080B489B000AFF860B9607A6018
:10249000FB6803F00703FB61FB69C3F10703042B2F
:1024A00028BF0423BB61FB690433062B02D9FB69F7
:1024B000033B00E000237B614FF0FF32BB6902FA6F
:1024C00003F3DA43BB681A407B699A404FF0FF314F
:1024D0007B6901FA03F3D9437B680B401343184629
:1024E0002437BD465DF8047B7047000080B582B09C
:1024F00000AF78607B68013BB3F1807F01D301239B
:102500000FE00A4A7B68013B53600F214FF0FF3018
:10251000FFF78EFF054B00229A60044B07221A60DA
:10252000002318460837BD4680BD00BF10E000E01C
:1025300080B582B000AF78607868FFF729FF00BFF0
:102540000837BD4680BD80B586B000AF0346B96090
:102550007A60FB7300237B61FFF73EFF78617A6846
:10256000B9687869FFF78EFF024697F90F30114678
:102570001846FFF75DFF00BF1837BD4680BD80B528
:1025800082B000AF0346FB7197F907301846FFF79A
:1025900031FF00BF0837BD4680BD80B582B000AFB7
:1025A00078607868FFF7A2FF034618460837BD46F3
:1025B00080BD000080B586B000AF786000237B61ED
:1025C000FFF7C2FA38617B68002B01D1012399E043
:1025D0007B68022283F835207B68002283F8342050
:1025E0007B681B681A687B681B6822F001021A600E
:1025F0000FE0FFF7A9FA02463B69D31A052B08D969
:102600007B6820225A657B68032283F835200323E8
:1026100078E07B681B681B6803F00103002BE8D19E
:102620007B681B681B687B617A69384B13407B6150
:102630007B685A687B689B681A437B68DB681A432F
:102640007B681B691A437B685B691A437B689B69DB
:102650001A437B68DB691A437B681B6A13437A69F8
:1026600013437B617B685B6A042B07D17B68DA6A62
:102670007B681B6B13437A6913437B617B681B6820
:102680007A691A607B681B685B697B617B6923F0F0
:1026900007037B617B685B6A7A6913437B617B68B4
:1026A0005B6A042B17D17B689B6A7A6913437B6151
:1026B0007B68DB6A002B0ED0786800F06FFA034667
:1026C000002B08D07B6840225A657B68012283F882
:1026D0003520012316E07B681B687A695A617868A7
:1026E00000F026FA0346FB607B68DB6D3F229A40D0
:1026F000FB689A607B6800225A657B68012283F838
:102700003520002318461837BD4680BD3F8010F0A5
:1027100080B586B000AFF860B9607A603B60002396
:10272000FB75FB689B6D3B61FB6893F83430012BB4
:1027300001D1022340E0FB68012283F83420FB68CA
:1027400093F83530DBB2012B2FD1FB68022283F8DE
:102750003520FB6800225A653B687A68B968F868DA
:1027600000F0B8F9FB68DB6D3F229A403B699A6044
:10277000FB681B681A68FB681B6842F016021A6047
:10278000FB681B6C002B07D0FB681B681A68FB6892
:102790001B6842F008021A60FB681B681A68FB6835
:1027A0001B6842F001021A6005E0FB68002283F812
:1027B00034200223FB75FB7D18461837BD4680BDCB
:1027C00080B586B000AF78600023BB608E4B1B687D
:1027D0008E4AA2FB03239B0A7B617B689B6D3B6156
:1027E0003B691B68FB607B68DB6D08229A40FB68D5
:1027F0001340002B1AD07B681B681B6803F004038E
:10280000002B13D07B681B681A687B681B6822F05A
:1028100004021A607B68DB6D08229A403B699A606B
:102820007B685B6D43F001027B685A657B68DB6DFA
:1028300001229A40FB681340002B12D07B681B6872
:102840005B6903F08003002B0BD07B68DB6D0122FA
:102850009A403B699A607B685B6D43F002027B683B
:102860005A657B68DB6D04229A40FB681340002B9D
:1028700012D07B681B681B6803F00203002B0BD08F
:102880007B68DB6D04229A403B699A607B685B6DD4
:1028900043F004027B685A657B68DB6D10229A4026
:1028A000FB681340002B43D07B681B681B6803F058
:1028B0000803002B3CD07B68DB6D10229A403B69FB
:1028C0009A607B681B681B6803F48023002B18D078
:1028D0007B681B681B6803F40023002B08D17B680E
:1028E0001B6C002B24D07B681B6C786898471FE01A
:1028F0007B689B6C002B1BD07B689B6C786898472F
:1029000016E07B681B681B6803F48073002B07D1FB
:102910007B681B681A687B681B6822F008021A60D3
:102920007B681B6C002B03D07B681B6C7868984716
:102930007B68DB6D20229A40FB681340002B00F07F
:102940008F807B681B681B6803F01003002B00F06E
:1029500087807B68DB6D20229A403B699A607B68A8
:1029600093F83530DBB2052B36D17B681B681A68CB
:102970007B681B6822F016021A607B681B685A6924
:102980007B681B6822F080025A617B681B6C002BFD
:1029900003D17B689B6C002B07D07B681B681A688F
:1029A0007B681B6822F008021A607B68DB6D3F229F
:1029B0009A403B699A607B68012283F835207B68E6
:1029C000002283F834207B681B6D002B7ED07B684F
:1029D0001B6D7868984779E07B681B681B6803F477
:1029E0008023002B1DD07B681B681B6803F4002329
:1029F000002B0DD17B685B6C002B31D07B685B6C4E
:102A0000786898472CE000BF00000020B5814E1B7D
:102A10007B68DB6B002B23D07B68DB6B7868984787
:102A20001EE07B681B681B6803F48073002B0FD1CA
:102A30007B681B681A687B681B6822F010021A60AA
:102A40007B68012283F835207B68002283F83420DC
:102A50007B68DB6B002B03D07B68DB6B7868984767
:102A60007B685B6D002B32D07B685B6D03F00103EC
:102A7000002B22D07B68052283F835207B681B68F9
:102A80001A687B681B6822F001021A60BB68013378
:102A9000BB607A699A4207D37B681B681B6803F0A6
:102AA0000103002BF2D100E000BF7B68012283F814
:102AB00035207B68002283F834207B68DB6C002B98
:102AC00005D07B68DB6C7868984700E000BF18375A
:102AD000BD4680BD80B485B000AFF860B9607A6053
:102AE0003B60FB681B681A68FB681B6822F4802245
:102AF0001A60FB681B683A685A60FB689B68402B49
:102B000008D1FB681B687A689A60FB681B68BA6822
:102B1000DA6007E0FB681B68BA689A60FB681B68AC
:102B20007A68DA6000BF1437BD465DF8047B7047F1
:102B300080B485B000AF78607B681B68DBB2103B67
:102B4000144AA2FB03231B09FB60134AFB681344CE
:102B50001B781A467B68DA65FB68032B09D97B680A
:102B60001B6823F47F7323F003031A1D7B689A65A7
:102B700007E07B681B6823F47F7323F003037A6804
:102B800093657B689B6D18461437BD465DF8047BE2
:102B9000704700BFABAAAAAA7889000880B485B0A4
:102BA00000AF78600023FB737B689B6ABB607B6827
:102BB0009B69002B1FD1BB68032B56D801A252F88A
:102BC00023F000BFD52B0008E72B0008D52B000809
:102BD0006B2C00087B68DB6A03F08073002B46D007
:102BE0000123FB7343E07B68DB6AB3F1C07F40D114
:102BF0000123FB733DE07B689B69B3F5005F21D146
:102C0000BB68032B37D801A252F823F01D2C000813
:102C1000232C00081D2C0008352C00080123FB7311
:102C200030E07B68DB6A03F08073002B25D0012342
:102C3000FB7322E07B68DB6AB3F1C07F1FD1012305
:102C4000FB731CE0BB68022B03D9BB68032B03D0CA
:102C500018E00123FB7315E07B68DB6A03F08073E7
:102C6000002B0ED00123FB730BE000BF0AE000BF76
:102C700008E000BF06E000BF04E000BF02E000BFC4
:102C800000E000BFFB7B18461437BD465DF8047BAF
:102C9000704700BF80B489B000AF7860396000230E
:102CA0007B6100233B610023BB610023FB6177E173
:102CB0000122FB6902FA03F37B613B681B687A69B6
:102CC00013403B613A697B699A4240F066813B68F8
:102CD0005B6803F00303012B05D03B685B6803F0DE
:102CE0000303022B30D17B689B68BB61FB695B00EF
:102CF000032202FA03F3DB43BA691340BB613B686A
:102D0000DA68FB695B0002FA03F3BA691343BB613B
:102D10007B68BA699A607B685B68BB610122FB696A
:102D200002FA03F3DB43BA691340BB613B685B689B
:102D30001B0903F00102FB6902FA03F3BA691343AA
:102D4000BB617B68BA695A603B685B6803F0030348
:102D5000032B17D07B68DB68BB61FB695B00032238
:102D600002FA03F3DB43BA691340BB613B689A681C
:102D7000FB695B0002FA03F3BA691343BB617B682A
:102D8000BA69DA603B685B6803F00303022B23D166
:102D9000FB69DA087B68083253F82230BB61FB69B3
:102DA00003F007039B000F2202FA03F3DB43BA6927
:102DB0001340BB613B681A69FB6903F007039B0082
:102DC00002FA03F3BA691343BB61FB69DA087B6853
:102DD0000832B96943F822107B681B68BB61FB6944
:102DE0005B00032202FA03F3DB43BA691340BB61C1
:102DF0003B685B6803F00302FB695B0002FA03F3C4
:102E0000BA691343BB617B68BA691A603B685B6847
:102E100003F44033002B00F0C0800023FB60664BBE
:102E20005B6C654A43F480435364634B5B6C03F40F
:102E30008043FB60FB68614AFB699B08023352F8E0
:102E40002330BB61FB6903F003039B000F2202FAEE
:102E500003F3DB43BA691340BB617B68584A934272
:102E600037D07B68574A934231D07B68564A9342A9
:102E70002BD07B68554A934225D07B68544A9342B5
:102E80001FD07B68534A934219D07B68524A9342C1
:102E900013D07B68514A93420DD07B68504A9342CD
:102EA00007D07B684F4A934201D1092312E00A23DD
:102EB00010E008230EE007230CE006230AE00523B8
:102EC00008E0042306E0032304E0022302E00123D8
:102ED00000E00023FA6902F0030292009340BA690D
:102EE0001343BB613549FB699B080233BA6941F85A
:102EF00023203D4B9B68BB613B69DB43BA691340B0
:102F0000BB613B685B6803F48013002B03D0BA6994
:102F10003B691343BB61344ABB699360324BDB6846
:102F2000BB613B69DB43BA691340BB613B685B68CB
:102F300003F40013002B03D0BA693B691343BB6150
:102F4000294ABB69D360284B5B68BB613B69DB43A3
:102F5000BA691340BB613B685B6803F40033002B24
:102F600003D0BA693B691343BB611F4ABB69536015
:102F70001D4B1B68BB613B69DB43BA691340BB61F6
:102F80003B685B6803F48033002B03D0BA693B696C
:102F90001343BB61144ABB691360FB690133FB61D6
:102FA000FB690F2B7FF684AE00BF00BF2437BD4600
:102FB0005DF8047B704700BF0038024000380140D4
:102FC000000002400004024000080240000C0240E1
:102FD000001002400014024000180240001C024091
:102FE0000020024000240240003C014080B586B031
:102FF00000AF78607B68002B01D1012367E27B681A
:103000001B6803F00103002B75D0884B9B6803F00D
:103010000C03042B0CD0854B9B6803F00C03082B8E
:1030200012D1824B5B6803F48003B3F5800F0BD1A0
:103030007E4B1B6803F40033002B5BD07B685B681E
:10304000002B57D1012342E27B685B68B3F5803FD8
:1030500006D1764B1B68754A43F4803313601DE03C
:103060007B685B68B3F5A02F0CD1704B1B686F4A6F
:1030700043F4802313606D4B1B686C4A43F4803328
:1030800013600BE0694B1B68684A23F480331360BC
:10309000664B1B68654A23F4802313607B685B687A
:1030A000002B13D0FEF750FD386108E0FEF74CFD11
:1030B00002463B69D31A642B01D9032307E25B4B19
:1030C0001B6803F40033002BF0D014E0FEF73CFD46
:1030D000386108E0FEF738FD02463B69D31A642BDD
:1030E00001D90323F3E1514B1B6803F40033002B98
:1030F000F0D100E000BF7B681B6803F00203002BE7
:1031000063D04A4B9B6803F00C03002B0BD0474B5A
:103110009B6803F00C03082B1CD1444B5B6803F441
:103120008003002B16D1414B1B6803F00203002BD8
:1031300005D07B68DB68012B01D00123C7E13B4B45
:103140001B6823F0F8027B681B69DB0037491343D7
:103150000B603AE07B68DB68002B20D0344B012207
:103160001A60FEF7F1FC386108E0FEF7EDFC02465C
:103170003B69D31A022B01D90323A8E12B4B1B680F
:1031800003F00203002BF0D0284B1B6823F0F80259
:103190007B681B69DB00254913430B6015E0244B5A
:1031A00000221A60FEF7D0FC386108E0FEF7CCFC84
:1031B00002463B69D31A022B01D9032387E11B4B3B
:1031C0001B6803F00203002BF0D17B681B6803F03F
:1031D0000803002B36D07B685B69002B16D0154B9B
:1031E00001221A60FEF7B0FC386108E0FEF7ACFC83
:1031F00002463B69D31A022B01D9032367E10B4B2B
:103200005B6F03F00203002BF0D01BE0094B0022A0
:103210001A60FEF799FC38610EE0FEF795FC024655
:103220003B69D31A022B07D9032350E1003802402F
:1032300000004742800E4742884B5B6F03F0020359
:10324000002BEAD17B681B6803F00403002B00F01D
:1032500097800023FB75814B1B6C03F08053002B80
:103260000FD10023BB607D4B1B6C7C4A43F0805325
:1032700013647A4B1B6C03F08053BB60BB68012363
:10328000FB75774B1B6803F48073002B18D1744BCC
:103290001B68734A43F480731360FEF755FC386172
:1032A00008E0FEF751FC02463B69D31A022B01D914
:1032B00003230CE16A4B1B6803F48073002BF0D0EE
:1032C0007B689B68012B06D1644B1B6F634A43F0FC
:1032D000010313671CE07B689B68052B0CD15F4BD7
:1032E0001B6F5E4A43F0040313675C4B1B6F5B4A22
:1032F00043F0010313670BE0584B1B6F574A23F051
:1033000001031367554B1B6F544A23F004031367E3
:103310007B689B68002B15D0FEF716FC38610AE02D
:10332000FEF712FC02463B69D31A41F288329342FF
:1033300001D90323CBE0494B1B6F03F00203002BA1
:10334000EED014E0FEF700FC38610AE0FEF7FCFB6B
:1033500002463B69D31A41F28832934201D90323D2
:10336000B5E03E4B1B6F03F00203002BEED1FB7D5B
:10337000012B05D1394B1B6C384A23F08053136461
:103380007B689B69002B00F0A180344B9B6803F0A5
:103390000C03082B5CD07B689B69022B41D1314B1D
:1033A00000221A60FEF7D0FB386108E0FEF7CCFB84
:1033B00002463B69D31A022B01D9032387E0274B2E
:1033C0001B6803F00073002BF0D17B68DA697B681F
:1033D0001B6A1A437B685B6A9B011A437B689B6A82
:1033E0005B08013B1B041A437B68DB6A1B061B4915
:1033F00013434B601B4B01221A60FEF7A5FB38619B
:1034000008E0FEF7A1FB02463B69D31A022B01D963
:1034100003235CE0114B1B6803F00073002BF0D01A
:1034200054E0104B00221A60FEF78EFB386108E072
:10343000FEF78AFB02463B69D31A022B01D903230C
:1034400045E0064B1B6803F00073002BF0D13DE014
:103450007B689B69012B07D1012338E000380240CB
:1034600000700040600047421B4B5B68FB607B685C
:103470009B69012B28D0FB6803F480027B68DB6921
:103480009A4221D1FB6803F03F027B681B6A9A4293
:103490001AD1FA6847F6C07313407A68526A9201EB
:1034A000934211D1FB6803F440327B689B6A5B084E
:1034B000013B1B049A4207D1FB6803F070627B68F2
:1034C000DB6A1B069A4201D0012300E00023184664
:1034D0001837BD4680BD00BF0038024080B584B0BB
:1034E00000AF786039607B68002B01D10123CCE00C
:1034F000684B1B6803F00F033A689A420CD9654B7E
:103500003A68D2B21A70634B1B6803F00F033A6833
:103510009A4201D00123B8E07B681B6803F00203E4
:10352000002B20D07B681B6803F00403002B05D020
:10353000594B9B68584A43F4E05393607B681B687F
:1035400003F00803002B05D0534B9B68524A43F409
:1035500060439360504B9B6823F0F0027B689B684C
:103560004D4913438B607B681B6803F00103002BFC
:1035700044D07B685B68012B07D1474B1B6803F481
:103580000033002B19D101237FE07B685B68022B9D
:1035900003D07B685B68032B07D13F4B1B6803F0AC
:1035A0000073002B09D101236FE03B4B1B6803F034
:1035B0000203002B01D1012367E0374B9B6823F006
:1035C00003027B685B68344913438B60FEF7BCFAE7
:1035D000F8600AE0FEF7B8FA0246FB68D31A41F237
:1035E0008832934201D903234FE02B4B9B6803F0B1
:1035F0000C027B685B689B009A42EBD1254B1B68F1
:1036000003F00F033A689A420CD2224B3A68D2B2C6
:103610001A70204B1B6803F00F033A689A4201D0DE
:10362000012332E07B681B6803F00403002B08D001
:10363000194B9B6823F4E0527B68DB6816491343FF
:103640008B607B681B6803F00803002B09D0124BCA
:103650009B6823F460427B681B69DB000E491343BF
:103660008B6000F021F802460B4B9B681B0903F0AE
:103670000F030A49CB5C22FA03F3094A1360094B92
:103680001B681846FEF71CFA002318461037BD4683
:1036900080BD00BF003C0240003802406089000845
:1036A00000000020040000202DE9B04F94B000AFCE
:1036B00000237B640023FB6400233B640023BB6482
:1036C000794B9B6803F00C03082B0DD0082B00F2FC
:1036D000E180002B02D0042B03D0DBE0734BBB64F2
:1036E000DBE0734BBB64D8E06F4B5B6803F03F03D8
:1036F0007B646D4B5B6803F48003002B63D06A4BE3
:103700005B689B090022BB63FA63BB6BC3F30803CE
:103710003B6300237B63D7E90C4522462B464FF0E1
:1037200000004FF00001590141EAD2615001024608
:103730000B462146511A3961294663EB01037B612F
:103740004FF000024FF00003D7E904AB59468B015C
:10375000514643EA916351468A015146B2EB010852
:10376000594663EB01094FF000024FF000034FEAA6
:10377000C90343EA58734FEAC80290469946234664
:1037800018EB0303BB602B4649EB0303FB604FF0D0
:1037900000024FF00003D7E9024529464B022146BB
:1037A00043EAD15321464A02104619467B6C002257
:1037B000BB62FA62D7E90A23FDF776FA02460B46A6
:1037C0001346FB6458E0384B5B689B09002218469F
:1037D0001146C0F308033B6200237B62D7E90889E6
:1037E00042464B464FF000004FF00001590141EABC
:1037F000D261500102460B464146B2EB010A4946EE
:1038000063EB010B4FF000024FF000034FEA8B1304
:1038100043EA9A634FEA8A12B2EB0A0463EB0B05A0
:103820004FF000024FF00003EB0043EA5473E20054
:1038300014461D464346E3183B604B4645EB0303E5
:103840007B604FF000024FF00003D7E900452946A6
:103850008B02214643EA915321468A0210461946BB
:103860007B6C0022BB61FA61D7E90623FDF71CFAE5
:1038700002460B461346FB640B4B5B681B0C03F0C4
:10388000030301335B003B64FA6C3B6CB2FBF3F364
:10389000BB6402E0054BBB6400BFBB6C18465037ED
:1038A000BD46BDE8B08F00BF003802400024F400E0
:1038B00000127A0080B400AF034B1B681846BD4667
:1038C0005DF8047B704700BF0000002080B500AFAA
:1038D000FFF7F0FF0246054B9B689B0A03F00703C6
:1038E0000349CB5C22FA03F3184680BD003802403E
:1038F0007089000880B500AFFFF7DCFF0246054B7A
:103900009B685B0B03F007030349CB5C22FA03F3CC
:10391000184680BD003802407089000880B582B02A
:1039200000AF78607B68002B01D101233FE07B680A
:1039300093F83D30DBB2002B06D17B68002283F880
:103940003C207868FDF776FE7B68242283F83D20D2
:103950007B681B68DA687B681B6822F40052DA60B7
:10396000786800F029F97B681B681A697B681B6816
:1039700022F490421A617B681B685A697B681B6855
:1039800022F02A025A617B681B68DA687B681B6830
:1039900042F40052DA607B6800221A647B682022BD
:1039A00083F83D207B68202283F83E2000231846C0
:1039B0000837BD4680BD80B58AB002AFF860B960F7
:1039C0003B601346FB8000237B61FB6893F83D302E
:1039D000DBB2202B7CD1BB68002B02D0FB88002BF4
:1039E00001D1012375E0FB6893F83C30012B01D134
:1039F00002236EE0FB68012283F83C20FB68002272
:103A00001A64FB68212283F83D20FEF79DF8786157
:103A1000FB68FA889A84FB68FA88DA84FB689B68FA
:103A2000B3F5805F08D1FB681B69002B04D100232C
:103A3000FB61BB68BB6103E0BB68FB610023BB614A
:103A4000FB68002283F83C202AE03B6800937B69F6
:103A500000228021F86800F040F80346002B01D0D6
:103A6000032336E0FB69002B0BD1BB691B881A4688
:103A7000FB681B68C2F308025A60BB690233BB6172
:103A800007E0FB691A78FB681B685A60FB69013321
:103A9000FB61FB68DB8C9BB2013B9AB2FB68DA846A
:103AA000FB68DB8C9BB2002BCFD13B6800937B691A
:103AB00000224021F86800F010F80346002B01D0E6
:103AC000032306E0FB68202283F83D20002300E06A
:103AD000022318462037BD4680BD80B590B000AFA8
:103AE000F860B9603B601346FB7150E0BB6CB3F10A
:103AF000FF3F4CD0BB6C002B07D0FEF725F80246E9
:103B00003B68D31ABA6C9A4241D2FB681B680C33EB
:103B1000BB62BB6A53E8003F7B627B6A23F4D073CD
:103B2000FB63FB681B680C33FA6B7A633B63396B8E
:103B30007A6B41E80023FB62FB6A002BE5D1FB684E
:103B40001B6814337B617B6953E8003F3B613B6931
:103B500023F00103BB63FB681B681433BA6B3A6242
:103B6000FB61F9693A6A41E80023BB61BB69002B3C
:103B7000E5D1FB68202283F83D20FB68202283F8F2
:103B80003E20FB68002283F83C2003230FE0FB6803
:103B90001B681A68BB681340BA689A420CBF0123BD
:103BA0000023DBB21A46FB799A429FD000231846C5
:103BB0004037BD4680BD00002DE9B04FC0B000AF1A
:103BC000C7F8F400D7F8F4301B681B6923F44050A1
:103BD000D7F8F430D968D7F8F4301A6840EA01030E
:103BE0001361D7F8F4309A68D7F8F4301B691A4398
:103BF000D7F8F4305B691A43D7F8F430DB69134324
:103C0000C7F8F830D7F8F4301B68DB6823F41641A6
:103C100021F00C01D7F8F4301A68D7F8F8300B43CC
:103C2000D360D7F8F4301B685B6923F44070D7F891
:103C3000F4309969D7F8F4301A6840EA0103536107
:103C4000D7F8F4301A688F4B9A4205D0D7F8F43081
:103C50001A688D4B9A4204D1FFF74CFEC7F8FC005E
:103C600003E0FFF733FEC7F8FC00D7F8F430DB6958
:103C7000B3F5004F40F00C81D7F8FC300022C7F8B4
:103C8000E830C7F8EC20D7E93A4522462B46911890
:103C9000B9655B41FB65D7E91623214612EB0108A4
:103CA000294643EB01094FF000024FF000034FEAB1
:103CB000C90343EA58734FEAC8029046994623461F
:103CC00018EB0303C7F8E0302B4649EB0303C7F8B2
:103CD000E430D7F8F4305B680022C7F8D830C7F872
:103CE000DC20D7E936120B46DB183B65134642EB66
:103CF00003037B65D7E91423D7E93801FCF7D4FF28
:103D000002460B46614BA3FB02235B091C01D7F85B
:103D1000FC300022C7F8D030C7F8D420D7E9348966
:103D200042464B469118B9645B41FB64D7E91223C4
:103D3000414612EB010A494643EB010B4FF00002EA
:103D40004FF000034FEACB0343EA5A734FEACA022B
:103D500092469B4643461AEB0303C7F8C8304B46CE
:103D60004BEB0303C7F8CC30D7F8F4305B68002284
:103D7000C7F8C030C7F8C420D7E930120B46DB18AB
:103D80003B64134642EB03037B64D7E91023D7E976
:103D90003201FCF789FF02460B4611463B4BA3FB61
:103DA00001235B09642202FB03F3CB1ADB0003F15E
:103DB0003202364BA3FB02235B095B0003F4F8736A
:103DC0001C44D7F8FC300022C7F8B830C7F8BC2034
:103DD000D7E92E8942464B469118B9635B41FB6394
:103DE000D7E90E2341465118396349464B417B635D
:103DF0004FF000024FF00003D7E90CAB5946CB005F
:103E0000514643EA51735146CA00104619460346CB
:103E100042469B18C7F8B0304B460A4642EB0303B4
:103E2000C7F8B430D7F8F4305B680022C7F8A83080
:103E3000C7F8AC20D7E92A120B46DB18BB62134641
:103E400042EB0303FB62D7E90A23D7E92C01FCF715
:103E50002BFF02460B460D4BA3FB02135B096421AB
:103E600001FB03F3D31ADB003233084AA2FB03231E
:103E70005B0903F00702D7F8F4301B6822449A600C
:103E800006E100BF00100140001401401F85EB5106
:103E9000D7F8FC300022C7F8A030C7F8A420D7E933
:103EA000288942464B46911839625B417B62D7E9CB
:103EB000082341465418494643EB01054FF00002E0
:103EC0004FF00003EB0043EA5473E20014461D4632
:103ED0004346E318C7F898304B4645EB0303C7F851
:103EE0009C30D7F8F4305B680022C7F89030C7F8F0
:103EF00094204FF000024FF00003D7E924452946F3
:103F00008B00214643EA917321468A00D7E92601B6
:103F1000FCF7CAFE02460B46604BA3FB02235B097B
:103F20001C01D7F8FC300022C7F88830C7F88C2075
:103F3000D7E9228942464B469118B9615B41FB6142
:103F4000D7E9062341465118396149464B417B6107
:103F50004FF000024FF00003D7E904AB5946CB0005
:103F6000514643EA51735146CA001046194603466A
:103F700042469B18C7F880304B460A4642EB030383
:103F8000C7F88430D7F8F4305B680022BB67FA6763
:103F90004FF000024FF00003D7E91E8949468B001D
:103FA000414643EA917341468A00D7E92001FCF774
:103FB0007BFE02460B461146384BA3FB01235B09EF
:103FC000642202FB03F3CB1A1B013233334AA2FBF8
:103FD00003235B0903F0F0031C44D7F8FC300022F4
:103FE0003B677A67D7E91C8942464B469118B9600E
:103FF0005B41FB60D7E902234146511839604946CD
:104000004B417B604FF000024FF00003D7E900AB5B
:104010005946CB00514643EA51735146CA001046F7
:104020001946034642469B18BB664B460A4642EB7E
:104030000303FB66D7F8F4305B6800223B667A66C0
:104040004FF000024FF00003D7E9188949468B0072
:10405000414643EA917341468A00D7E91A01FCF7C9
:1040600023FE02460B460D4BA3FB02135B096421A2
:1040700001FB03F3D31A1B013233084AA2FB0323CB
:104080005B0903F00F02D7F8F4301B6822449A60F2
:1040900000BF07F58077BD46BDE8B08F1F85EB51A7
:1040A0002DE9FF4755EC104B002D0E4619462B46C7
:1040B000BBBF05F100431D4600232D230B700D9B54
:1040C000DDF830A0914623F02008BCBF22461446FC
:1040D000B8F1460F05D0B8F1450F00D101360221E5
:1040E00000E0032103AB019302AB009345EC104BBE
:1040F0005346324601F080F9B8F1470F074602D126
:1041000019F0010F22D0B8F1460F07EB060910D1C4
:104110003B78302B0AD10022002320462946FCF7A9
:10412000E3FC18B9C6F10106CAF80060DAF80030FD
:1041300099440022002320462946FCF7D5FC08B10B
:10414000CDF80C903022039B4B4507D3039B0E9A6E
:10415000DB1B3846136004B0BDE8F087591C03919F
:104160001A70F0E7F7B503460029B8BF494203F8D3
:10417000022BB4BF2D222B22092942702ADD0DF11A
:10418000070217460A26944691FBF6F506FB15141E
:1041900030340CF8014C0C46632C02F1FF322946F6
:1041A000F1DC3031ACF1020402F8011C411C224662
:1041B000BA420AD30DF10902A2EB0C02BC4288BF3D
:1041C00000221344181A03B0F0BD12F8015B01F885
:1041D000015FEDE7302330318370C170031DF1E7DB
:1041E0002DE9F04F2DED028B8DB00C46DDF860808F
:1041F00016461F46054600F0F9FFD0F800A05046CD
:10420000FCF746F800230A9323680593D8F800309A
:1042100094F818B0073323F0070303F10802C8F835
:104220000020D3E9008929F000430793CDF81880D6
:1042300008EE100AC4E91289DDE906019E4B4FF031
:10424000FF32FCF783FC88BBDDE906019A4B4FF097
:10425000FF32FCF75DFC48BB002200234046494684
:10426000FCF74CFC10B12D2384F84330934A944B57
:10427000BBF1470F94BF9046984603232361059BEB
:1042800023F0040323604FF00009009733460BAA84
:104290002146284600F0DAF9013040F090804FF0D6
:1042A000FF300DB0BDEC028BBDE8F08F42464B46AF
:1042B00040464946FCF74AFC40B14B46002BBCBF88
:1042C0002D2384F843307F4A7F4BD1E763680BF09E
:1042D000DF0206925A1C3FD106236360059B61688A
:1042E00043F48062002303930AABCDE901B309AB29
:1042F00049EC108B009322600DF123032846FFF751
:10430000CFFE069B0999472B804608D1C81C02DBCB
:104310006368994241DDABF102035FFA83FBBBF1B5
:10432000650F20D801395A4604F150000991FFF772
:1043300019FF0A9A1318012A8146236102DC2268B8
:10434000D20701D5013323619DF82330002B9CD087
:104350002D2384F8433098E7069A472ABED1002BD4
:10436000BCD10123B9E7BBF1660F18D100296368FE
:104370000BDD216113B92268D00702D501330B444C
:104380002361A1654FF00009DEE713B92268D20767
:1043900001D50233F4E70123F2E74FF0670B0A9BE4
:1043A000994205DB23682161D807EAD54B1CE7E772
:1043B0000029D4BFC1F1020201221344E0E72368BF
:1043C0005A0507D42369424631462846B84701308A
:1043D0002CD164E7BBF1650F40F2E080D4E9120113
:1043E00000220023FCF780FB002834D0374A012349
:1043F00031462846B84701303FF451AFDDE9092383
:104400009A4202DB2368D80710D518EE103A5246BC
:1044100031462846B84701303FF441AF4FF000081D
:1044200004F11A090A9B013B434509DC23689B07F9
:1044300000F10781E0680B9B9842B8BF184630E74F
:1044400001234A4631462846B84701303FF427AF9A
:1044500008F10108E6E7099B002B39DC1B4A012320
:1044600031462846B84701303FF419AFDDE909323B
:10447000134302D12368D907D8D518EE103A524613
:1044800031462846B84701303FF409AF4FF00009E4
:1044900004F11A0A099B5B424B4501DC0A9B92E737
:1044A0000123524631462846B84701303FF4F7AE63
:1044B00009F10109EEE700BFFFFFEF7F80890008E7
:1044C00084890008888900088C8900089089000880
:1044D0000A9AA36D9A42A8BF1A46002A914637DC71
:1044E0004FF0000B29EAE97904F11A02A36D059354
:1044F000A3EB09035B4533DCDDE909239A423BDB8F
:104500002368DA0738D4DDE90932A2EB0309059BF9
:10451000D21A9145A8BF9146B9F1000F35DC4FF092
:10452000000829EAE97904F11A0ADDE909239B1A4E
:10453000A3EB090343457FF779AF01235246314688
:104540002846B84701303FF4AAAE08F10108ECE76D
:104550001346314642462846B8470130C0D19EE650
:104560000123314628460592B84701303FF497AE03
:10457000059A0BF1010BB9E718EE103A5246314695
:104580002846B8470130BED189E6059A4B464244D9
:1045900031462846B8470130C1D180E60A9A012A3F
:1045A00001DCDB073AD50123424631462846B847AD
:1045B00001303FF474AE18EE103A524631462846A8
:1045C000B84701303FF46BAED4E91201002200235A
:1045D000DDF828A0FCF788FAD8B90AF1FF3308F112
:1045E000010231462846B84701300ED157E6012373
:1045F000524631462846B84701303FF450AE08F1E4
:1046000001080A9B013B4345F1DC4B4604F1500293
:10461000DAE64FF0000804F11A0AF2E701234246F5
:10462000DFE701234A4631462846B84701303FF4C8
:1046300036AE08F10108E3680B995B1A4345F0DCDC
:10464000F8E64FF0000804F11909F4E72DE9F04706
:10465000164699468A680B69DDF820809342B8BFF8
:104660001346336091F8432007460C460AB10133E4
:1046700033602368990642BF33680233336025688C
:1046800015F0060506D104F1190AE36832689B1A91
:10469000AB4226DC94F84320131E226818BF012386
:1046A00092062BD404F1430249463846C0470130F4
:1046B0001ED02368226903F00603042B02BFE568BD
:1046C0003368ED1AA3680CBF25EAE575002593420F
:1046D000C4BF9B1AED1800261A34B5421AD1002027
:1046E00008E00123524649463846C047013003D10D
:1046F0004FF0FF30BDE8F0870135C6E7E1185A1CDE
:10470000302081F84300224494F8451082F8431089
:104710000233C7E70123224649463846C0470130E5
:10472000E6D00136D9E700002DE9FF470F7E0C9D4A
:10473000782F914680460C469A4601F1430207D8ED
:10474000622F0AD8002F00F0D480582F00F0C080CC
:1047500004F1420584F842703AE0A7F16303152B97
:10476000F6D801A151F823F0C1470008D547000849
:1047700051470008514700085147000851470008B9
:10478000D547000851470008514700085147000825
:1047900051470008D948000801480008934800081C
:1047A0005147000851470008FB48000851470008DE
:1047B0000148000851470008514700089B4800087D
:1047C0002B681A1D1B682A6004F1420584F84230E8
:1047D00001239FE020682B68070603F1040129608C
:1047E00001D51E6803E04606FBD5B3F90060002E34
:1047F00003DA2D23764284F843305A480A2312E024
:104800002B682068191D2960050601D51E6802E085
:104810004106FBD51E8853486F2F0CBF08230A237F
:10482000002184F843106568A560002DA2BF2168AF
:1048300021F0040121600EB9002D4BD01546B6FBC6
:10484000F3F103FB1167C75D05F8017D3746BB42F5
:104850000E46F4D9082B0BD12368DE0708D523694F
:1048600061689942DEBF302305F8013C05F1FF3550
:10487000521B2261CDF800A04B4603AA21464046B8
:10488000FFF7E4FE01304AD14FF0FF3004B0BDE83D
:10489000F087236843F0200323603348782784F8A7
:1048A0004570236829681F0651F8046B02D45F061F
:1048B00048BFB6B2DF0748BF43F02003296048BFB6
:1048C00023601EB9236823F0200323601023A7E789
:1048D0002448E4E71546BDE72B6826686169181D82
:1048E000286035061B6801D5196002E07006FBD50B
:1048F0001980002323611546BCE72B681A1D2A6026
:104900001D68626800212846FBF772FC08B1401B55
:10491000606063682361002384F84330AAE7236959
:104920002A4649464046D0470130ADD023689B0710
:1049300013D4E068039B9842B8BF1846A6E701234A
:10494000324649464046D04701309DD00135E368A4
:1049500003995B1AAB42F2DCEBE7002504F1190680
:10496000F5E700BF92890008A38900082DE9F04F00
:1049700087B0174603938B685A1EB2F5AE7F83BF8C
:104980006FF4AE755B190293002386BF40F25D138E
:104990008B6002930B688B46002543F4F0634BF861
:1049A0001C3BCDE9045580460C465E46AA46A94606
:1049B0000195A26852B13B681B784E2B64D8402BFE
:1049C0003CD8A3F12B01C8B20E283AD9B9F1000F97
:1049D00003D0236823F4807323600AF1FF3ABAF10D
:1049E000010F00F213815E4500F205810125284682
:1049F00007B0BDE8F08FA3F161020D2AE6D801A14E
:104A000051F822F0434B0008CD490008CD49000879
:104A1000CD490008A34B00087B4B0008CD49000896
:104A2000CD490008514B0008CD490008CD49000888
:104A3000CD490008CD490008094B0008A3F1410207
:104A4000DBE70E29C2D801A050F821F0FB4A00088C
:104A5000CD490008FB4A00088F4B0008CD490008EB
:104A6000A94A0008E54A0008E54A0008E54A0008A6
:104A7000E54A0008E54A0008E54A0008E54A00085A
:104A8000E54A0008E54A00086E2B09D8602BB2D829
:104A9000542B77D0592B99D1072D97D1082529E090
:104AA000742B6FD0792BF6E72168C8051AD5029BC5
:104AB00021F08001216009F101091BB1013B0132A4
:104AC0000293A260A368013BA360236901332361C1
:104AD0007B68013B002B7B6040F384803B680133A3
:104AE0003B6066E71AEB050F7FF470AF226822F493
:104AF000C072226006F8013BE4E7226810067FF5E9
:104B000065AF22F08002F4E7BAF1000F0ED1B9F1DF
:104B1000000F0ED1226802F4E061B1F5E06F08D118
:104B200022F4F06222604FF0010AE3E7BAF1020FCB
:104B300055D0012D02D0042D7FF448AF0135EDB2E0
:104B4000D8E7BAF1010F7FF441AF4FF0020AD1E785
:104B50007DB9B9F1000F7FF43CAF226802F4E06147
:104B6000B1F5E06F7FF439AF22F4F06222600125E5
:104B7000C0E7032DE2D0052DDEE7022D7FF426AF3E
:104B80000325B7E7062D7FF421AF0725B2E722689A
:104B900091057FF51BAF22F420722260CDF80490BE
:104BA000A8E7226802F4A061B1F5806F06D0500535
:104BB0007FF50CAFB9F1000F3FF40FAF910558BF6F
:104BC000019922F4F06258BFA9EB010142F4C072CE
:104BD00058BFCDE9041622604FF000098AE74FF074
:104BE000030A87E7D4F880313946404698470028C1
:104BF0003FF4DFAEEAE6D4F87C3116F8011D3A4600
:104C0000404698472369013B2361ECE66B1E062B67
:104C100025D8022D36D85E457FF6E8AED4F87C3133
:104C200016F8011D3A46404698472369013B236127
:104C3000F1E70298D4F87C3110F8011D02903A4651
:104C4000404698472369013B23610AF1FF3A5FFA26
:104C50008AFABAF1020FECD1033DEDB2761B23685C
:104C6000DA052FD55B0510D55E457FF6BFAED4F8CB
:104C70007C3116F8011D3A46404698472369013BAE
:104C80002361F1E7AA460296DFE716F8011C2369C3
:104C9000652903F1FF3306F1FF3523610CD0452967
:104CA0000AD0D4F87C313A4640469847236916F832
:104CB000021C013BB51E2361D4F87C313A464046C4
:104CC00098472E46256815F0100558D13570236891
:104CD00003F4C063B3F5806F1CD1019B4B45A3EB7C
:104CE000090224D100225946404602F031FD039BBF
:104CF00021681B6811F0020F57EC106B03F10402DE
:104D000020D003990A601B68C3E90067E368013398
:104D1000E3606CE6049B002BE4D005990A232A4645
:104D20000131404602F09CFD049B059EC21A04F22C
:104D30006F139E4228BF04F5B7761249304600F043
:104D400055F9CFE711F0040F03990A60DBD1D3F8CE
:104D5000008010EE102A10EE100A3B463946FBF791
:104D6000F5FE28B1084800F0B9FA88ED000ACDE751
:104D700030463946FBF748FFC8F80000C6E7002573
:104D800035E600BFB4890008458D0008002310B542
:104D90000446C0E90033C0E904338360818143667F
:104DA000C2818361194608225C3000F017FA0D4B6E
:104DB00063620D4BA3620D4BE3620D4B23630D4BFE
:104DC00024629C4206D003F16802944202D0D033A0
:104DD0009C4205D104F15800BDE8104000F07ABAB9
:104DE00010BD00BF2D5000084F500008875000082C
:104DF000AB500008B8030020024A0349034800F002
:104E000069B800BF0C000020A97E0008180000202F
:104E100041680C4B994210B5044601D003F044F8A8
:104E2000A168094B994202D0204603F03DF8E168A1
:104E3000064B994204D02046BDE8104003F034B838
:104E400010BD00BFB803002020040020880400200B
:104E500010B50B4B0B4C0C4A1A6020460022042163
:104E6000FFF794FF04F1680001220921FFF78EFF8C
:104E700004F1D0000222BDE810401221FFF786BFE6
:104E8000F0040020B8030020F94D0008014800F0AC
:104E900022BA00BFF9040020014800F01DBA00BF8B
:104EA000F904002010B50446FFF7F0FF236A1BB198
:104EB000BDE81040FFF7F0BF044B2362044B1B68B2
:104EC000002BF5D1FFF7C4FFF2E700BF114E000839
:104ED000F00400202DE9F8430746884614460026D2
:104EE000D4E90195B9F1010905D52468002CF7D161
:104EF0003046BDE8F883AB89012B07D9B5F90E30F0
:104F0000013303D029463846C04706436835E9E7F0
:104F10000FB407B5064904AB086853F8042B816841
:104F2000019302F021FE03B05DF804EB04B070477A
:104F300064000020036A70B5846805460E460BB90C
:104F4000FFF7B0FF636EDB0705D4A389980502D491
:104F5000A06D00F0C0F9A389190713D523698BB19F
:104F6000013EA36816F8011F013BA360E9B9002BBD
:104F70002EDA22460A21284600F09BF8013007D09D
:104F80000A2507E02146284600F0D0F80028E7D09F
:104F90004FF0FF35636EDA0705D4A3899B0502D471
:104FA000A06D00F099F9284670BD002B04DAA269C3
:104FB0009A4206DC0A2904D023685A1C2260197020
:104FC000CFE72246284600F074F80130C9D1DFE768
:104FD00023680A255A1C22601D70DBE7024B01463C
:104FE0001868FFF7A7BF00BF640000200EB400B52B
:104FF0009CB01DAB029006906FF0004109480791EC
:105000000491094953F8042B05910068019302A902
:1050100002F082FC029B00221A701CB05DF804EBC7
:1050200003B07047640000200802FFFF10B50C4673
:10503000B1F90E1000F000F90028ABBF636DA38931
:105040001B1823F48053ACBF6365A38110BD2DE909
:10505000F0411F468B89DB0505460C46164605D5F3
:10506000B1F90E100223002200F0D4F8A389B4F99C
:105070000E1023F48053A38132463B462846BDE8F8
:10508000F04100F0EBB810B50C46B1F90E1000F08D
:10509000C1F8431CA38915BF606523F4805343F412
:1050A0008053A38118BFA38110BDB1F90E1000F089
:1050B000A1B8F8B50E461446054618B1036A0BB9F7
:1050C000FFF7F0FEA369A360A3891A0725D523691A
:1050D0001BB323682269981A6369F6B28342374684
:1050E00004DC2146284602F0DFFEE0B9A368013B5C
:1050F000A36023685A1C22601E706269431C9A4296
:1051000004D0A389DB0706D50A2E04D12146284600
:1051100002F0CAFE38B93846F8BD2146284600F0EC
:1051200005F80028D5D04FF0FF37F4E738B52A4B03
:10513000054618680C4618B1036A0BB9FFF7B2FEB2
:10514000A389B4F90C20180722D4D90607D409235F
:105150002B6042F04003A3814FF0FF3034E058074A
:1051600012D5616B41B104F14403994202D0284643
:1051700000F034FF00236363A38923F02403A38199
:105180000023636023692360A38943F00803A3819C
:1051900023694BB9A38903F42073B3F5007F03D0CF
:1051A0002146284602F0CEFEA089B4F90C2010F06A
:1051B00001030AD00023A36063695B42A3612369F2
:1051C00043B910F08000C4D138BD810758BF63696E
:1051D000A360F4E70020F7E76400002002440346E0
:1051E000934200D1704703F8011BF9E7004870476C
:1051F0005801002038B5064D0023044608462B60B0
:10520000FCF795FB431C02D12B6803B1236038BD2A
:10521000F404002038B5074D044608461146002224
:105220002A601A46FCF7AAFB431C02D12B6803B183
:10523000236038BDF404002038B5074D0446084605
:10524000114600222A601A46FCF754FB431C02D187
:105250002B6803B1236038BDF404002038B5074D36
:1052600004460846114600222A601A46FBF7D0FE83
:10527000431C02D12B6803B1236038BDF404002025
:10528000014B1868704700BF6400002070B50D4DD9
:105290000D4C641BA4100026A64209D10B4D0C4CEA
:1052A00003F042FB641BA4100026A64205D170BD8A
:1052B00055F8043B98470136EEE755F8043B98470C
:1052C0000136F2E7B08D0008B08D0008B08D0008FF
:1052D000B48D000870477047704700009FED010AC9
:1052E000704700BF0000C07F2DE9F74F03690C69CC
:1052F000A34207467EDB013C01F1140800F11405CE
:1053000005EB8403019358F8243055F82420013329
:105310009A424FEA840B08EB8409B2FBF3F631D3CF
:105320004FF0000E4046AC46F24650F8042B93B2C4
:1053300006FB03E34FEA124E1A0C9BB2AAEB0303DF
:10534000DCF800A013FA8AF306FB0E220093009B00
:105350004FEA124E92B2C2EB1A4202EB2342BDF860
:105360000030814543EA02434CF8043B4FEA224AAD
:10537000DBD255F80B302BB9019B043B9D421A46FA
:105380002CD33C61384601F0EFF9002822DB0136CE
:105390002946002058F8042BD1F800C093B2C31A54
:1053A000120C13FA8CF3C2EB1C4202EB23429BB2A9
:1053B00043EA0243C14541F8043B4FEA2240E9D2A7
:1053C00055F8242005EB840322B9043B9D421A467C
:1053D0000AD33C61304603B0BDE8F08F1268043B4D
:1053E000002ACED1013CC9E71268043B002AF0D163
:1053F000013CEBE70020EEE72DE9F04F2DED048BAB
:10540000C56993B08DED020B57EC106BDDF8808011
:10541000079104460A920D9375B9102000F02AFEF8
:105420000246E06120B9AE4BEF21AE4802F03CFEEF
:10543000C0E901550560C560E369196851B15A6852
:105440004A60012393408B60204600F007FFE36928
:1054500000221A603B1EBBBF23F0004303930023CE
:105460000122ACBFC8F80030C8F800209E4BDDF820
:105470000C8033EA08031BD10D9A42F20F731360BC
:10548000C8F31303334300F09385219B63B9974B13
:1054900027E0974B00930833219A1360009813B0CC
:1054A000BDEC048BBDE8F08F904B00930333F3E722
:1054B0009DED027B002251EC170BB0EE478AF0EE17
:1054C000678A0023FBF710FB814660B10D9A012328
:1054D0001360219B002B00F06885864B219A136096
:1054E000013B0093DAE710AA11A92046B0EE480A62
:1054F000F0EE680A01F04EFAC8F30A558246002D14
:105500007FD018EE903AC3F3130343F07F5351EC6E
:10551000180B43F44013A5F2FF35CDF83890194627
:105520000022754BFAF7C0FE67A3D3E90023FBF70F
:1055300073F867A3D3E90023FAF7B8FE06462846B6
:105540000F46FAF7FFFF64A3D3E90023FBF764F8E3
:1055500002460B4630463946FAF7A8FE06460F4685
:10556000FBF70AFB00228346002330463946FBF74F
:10557000C5FA48B15846FAF7E5FF32463B46FBF715
:10558000B3FA08B90BF1FF3BBBF1160F57D85B4BD1
:1055900003EBCB03D3E9002351EC180BFBF7AEFA76
:1055A00000284ED00BF1FF3B00230C93109B5B1B9C
:1055B0005A1E45BFC3F10103059300230023069241
:1055C00054BF05930693BBF1000F3CDB069BCDF85F
:1055D0002CB05B44069300230893079B092B68D8E3
:1055E000052BC4BF043B0793079BA3F10203CCBF69
:1055F00000250125032B00F28580DFE803F02E3B18
:105600003958DDE910531D4405F23243202BC1BF48
:10561000C3F1400308FA03F805F2124326FA03F334
:10562000D6BFC3F1200348EA030006FA03F0FAF7F5
:1056300079FF0122A1F1F873013D0E926FE701237A
:10564000B3E70C90B2E7059BA3EB0B030593CBF1FB
:105650000003089300230B93BFE7002309930A9BE1
:10566000002B52DC0123019304931A460A920BE0AB
:105670000123F3E7002309930A9B5B440193013361
:10568000012B0493B8BF0123E0690021042202F139
:1056900014069E423DD94160204600F09FFD0090D7
:1056A000002839D1164B024640F2AF11BDE6012366
:1056B000E1E701250023079309954FF0FF3301939C
:1056C000049300221223D1E761436F63A787D23F7F
:1056D000B3C8608B288AC63FFB799F501344D33FE1
:1056E000C6890008DD8900080000F07FC289000833
:1056F000B9890008918900080000F83FC88A0008AD
:10570000358A000801230993D7E70A9B0193049384
:10571000BAE701315200BAE7E369009A1A60049BC4
:105720000E2B00F2A880002D00F0A580BBF1000F29
:1057300038DDC04B0BF00F0203EBC2031BF4807F7C
:10574000D3E900674FEA2B1819D0BB4B51EC180B6B
:10575000D3E90823FBF78AF8CDE9020108F00F0826
:105760000325DFF8D492B8F1000F0AD1DDE9020178
:1057700032463B46FBF77AF8CDE902012BE00225E1
:10578000EFE718F0010F08D030463946D9E9002379
:10579000FAF742FF013506460F464FEA680809F15D
:1057A0000809E0E700F09F80CBF10006A14BA24F73
:1057B00006F00F0203EBC203D3E9002351EC180BF0
:1057C000FAF72AFFCDE90201361100230225002E47
:1057D0007ED1002BD0D10C9BDDE90289002B00F09B
:1057E0008480964B002240464946FBF787F9002803
:1057F0007BD0049B002B78D0019B002B39DD904B94
:10580000002240464946FAF707FFCDE90201019E12
:105810000BF1FF370135DDE902892846FAF792FEE0
:1058200042464B46FAF7F8FE864B0022FAF73EFD59
:10583000A1F15073CDE902010393002E58D1824BA0
:10584000002240464946FAF72FFDDDE90223804653
:105850008946FBF771F9002840F09682DDE90221C4
:10586000404601F100434946FBF748F9002840F063
:1058700089828DED028B119B002BC0F24E81BBF112
:105880000E0F00F34A816B4B03EBCB03D3E9008986
:105890000A9B002B80F2DC80049B002B00F3D88055
:1058A00040F06F82684B002240464946FAF7B4FE4A
:1058B000DDE90223FBF736F9049E3746002840F065
:1058C0004582009D312305F8013B0BF1010B41E2BC
:1058D000F20705D5D7E90023FAF79EFE013501232B
:1058E0007610083773E7022575E7049E5F4692E756
:1058F0000099504B9DED027B314402910999B0EE25
:10590000479AF0EE679A03EBC60353E90223002996
:1059100044D04E490020FAF7A9FF53EC192BFAF7AF
:10592000C3FC009D41EC190B49464046FBF724F9A6
:105930000646FAF707FE02460B4640464946FAF786
:10594000B3FC303605F8016B53EC192B80468946C1
:10595000FBF7D4F8002864D142464B463749002073
:10596000FAF7A2FC53EC192BFBF7C8F8002840F01B
:10597000B680029B9D423FF47CAF314B51EC190B3A
:105980000022FAF749FE2E4B41EC190B002240464B
:105990004946FAF741FE80468946C5E751EC170BA8
:1059A000FAF73AFE029B009D0F9341EC190B494612
:1059B0004046FBF7E1F80646FAF7C4FD30360246EA
:1059C0000B4640464946FAF76FFC05F8016B029B0F
:1059D0009D42804689464FF0000224D11B4B51EC7A
:1059E000190BFAF763FC02460B4640464946FBF7A3
:1059F000A3F8002873D153EC192B14490020FAF7AF
:105A000053FC02460B4640464946FBF777F8002810
:105A10003FF42FAF0F9D6B1E0F9315F8013C302BF9
:105A2000F8D0BB464AE0064BFAF7F6FD80468946B9
:105A3000BDE700BFC88A0008A08A00080000F03F48
:105A40000000244000001C40000014400000E03F23
:105A5000DDE90267009D42464B4630463946FAF77B
:105A600005FFFBF789F80190FAF76CFD42464B46BB
:105A7000FAF7D2FD02460B4630463946FAF714FCD7
:105A8000019E049F303605F8016B009EAE1BB742A5
:105A900002460B4634D1FAF709FC42464B4606460D
:105AA0000F46FBF749F8C8B942464B4630463946DF
:105AB000FBF71AF810B1019BDB070FD451462046C3
:105AC00000F0CCFB00230D9A2B700BF10103136047
:105AD000219B002B3FF4E2AC1D60DFE45F462B46C8
